:020000020000FC
:1000000028465C6EB46E5A4602E804B9D0E0E0E0DF
:10001000FEE1A8E0E0E0F0E0859130D000C0299A50
:1000200058D0299800D060E060938000D03051F41F
:1000300065EC6093810056B355FF17C000918600B0
:10004000D1E013C065E86093810056B355FF0DC041
:10005000C0918600D0E0C01BCF170CF406C0E03082
:1000600011F4E1E002C0E0E000C0E03019F4AA952C
:1000700099F6CFCFA395A83079F6CBCF1AE02C9A7A
:1000800006D02C9812D01A95D1F719D008952227AE
:1000900026BD202F27BD2CE025BD25B321FFFDCF98
:1000A000222725BD22E025BB08952FEF32ED42E047
:1000B0004A95F1F73A95D9F72A95C1F708952FEFA8
:1000C0003FEF49E24A95F1F73A95D9F72A95C1F7FA
:1000D0000895662766BD64E167BD6AE065BD65B3E6
:0E00E00061FFFDCF662765BD62E065BB089538
:00000001FF
