:020000020000FC
:1000000028465C6EB46E5A460CE904B906E007B99E
:10001000D0E0E0E0FEE1A8E0E0E0F0E0859144D04F
:1000200000C0299A6CD0299800D060E060938000CD
:10003000D03051F465EC6093810056B355FF2AC06F
:1000400000918600D1E026C065E86093810056B338
:1000500055FF20C0C0918600D0E0C01BCF170CF424
:1000600019C0502F111B29E0001F2A9509F408C060
:10007000111F1C1B18F41C0F8894F6CF0894F4CFA2
:1000800058B929D008B900C0E03011F4E1E002C04D
:10009000E0E000C0E03021F4AA9501F4BFCFBBCF6F
:1000A000A395A830D9F7B7CF1AE02C9A06D02C9890
:1000B00012D01A95D1F719D00895222726BD202FE6
:1000C00027BD2CE025BD25B321FFFDCF222725BD6F
:1000D00022E025BB08952FEF32ED42E04A95F1F77B
:1000E0003A95D9F72A95C1F708952FEF3FEF49E2E6
:1000F0004A95F1F73A95D9F72A95C1F708956627F9
:1001000066BD64E167BD6AE065BD65B361FFFDCFB3
:0A011000662765BD62E065BB089537
:00000001FF
